:020000020000FC
:020000004FC0EF
:1000A0000FEF01B9249A259A00279FEF92B92C9A55
:1000B0002D9A00002C982D9808E00EBF0FEF0DBF71
:1000C000C1E0D0E00E9481000E948D000E94990052
:1000D000C2E0D1E00E9481000E948D000E94990040
:1000E000C3E0D2E00E9481000E948D000E9499002E
:1000F000C4E0D3E00E9481000E948D000E9499001C
:10010000DBCF0027F1E0ECE4EC0FF01F649162B963
:100110002C9A000000002C9808950027F1E0ECE5EF
:10012000ED0FF01F649162B92D9A000000002D9828
:10013000089542E019E728E23AE03A95F1F72A9566
:10014000D9F71A95C1F74A95A9F70895C0F9A4B04F
:10015000999282F880908883C6A1868E0E0D0B0737
:00000001FF
