:020000020000FC
:020000004FC0EF
:1000A00008E00EBF0FEF0DBF089810980FEF04B9CE
:1000B0000E9459010E9473000E9421010E9429019F
:1000C0000E940F010E94EF000E9483000E943D01E8
:1000D0000E9446010E940F010E94EF000E94A300AF
:1000E0000E948201E9CF13E04ED04DD04CD012E0F7
:1000F0004AD018E248D011E046D01CE044D016E0C7
:1001000042D0112708951F9310E83DD011E451D03B
:1001100014E44FD013E44DD010E34BD01AE349D090
:1001200010E247D01F912F9320E3120F2F9141D05F
:100130001EE23FD0102F0F9300E3100F0F9139D024
:1001400016E537D008951F9310EC1DD011E431D07F
:1001500014E42FD013E42DD011E32BD01AE329D0CF
:1001600010E227D01F912F9320E3120F2F9121D05F
:100170001EE21FD0102F0F9300E3100F0F9119D024
:1001800016E517D008950F93012F007F05B9289821
:1001900029982A9A00002A98BCD0012F0295007F46
:1001A00005B9289829982A9A00002A98B2D00F9168
:1001B00008950F93012F007F05B9289A29982A9A4C
:1001C00000002A98A6D0012F0295007F05B9289A31
:1001D00029982A9A00002A989CD00F910895402FC0
:1001E000512F2227332761E370E0040F151F271FCB
:1001F000371F6A95D1F76AE03695279517950795C9
:100200006A95D1F777276627552744273327222772
:1002100011270A3018F013950A50FBCF08950F9359
:100220000F931F9305E50E946701012F0E9467014C
:100230001F910F910E9467010FEF0E9467010F91BC
:10024000089500E400937C0007E800937A00000022
:1002500008952F93207020917C0020917A002064D3
:1002600020937A0020917A0020742034D9F30091F1
:100270007800109179002F91089500E401600093B7
:100280007C0007E800937A00000008952F932091E6
:100290007C0020917A00206420937A0020917A00DB
:1002A00020742034D9F300917800109179002F91B7
:1002B000089507E60093C40002E00093C00006E042
:1002C0000093C20008E10093C100002708951F9326
:1002D0001091C00015FFFCCF0093C6001F91089538
:1002E0001F9310E014BD10E015BD10E016BD10E026
:1002F00014BD15E015BDA89BFECFA89A10E015BD52
:100300001F9108952F932FE1EBDF2A95E9F72F91A5
:1003100008957F938F939F93AF93A1E09CE078E241
:100320008AE08A95F1F77A95D9F79A95C1F7AA9557
:0C033000A9F7AF919F918F917F910895E4
:00000001FF
