:020000020000FC
:020000003FC0FF
:10008000089809980A98109A119A129A0FEF04B9D1
:1000900000E005B9389A399A4098419808E00EBFB7
:1000A0000FEF0DBF0027009B05C0019B0BC0029BFB
:1000B00011C0F8CF0E9490000099F4CF039508304A
:1000C00089F0F8CF0E9490000199ECCF0395083099
:1000D00099F0F8CF0E9490000299E4CF0395083080
:1000E000A9F0F8CF009BFECF0027C0E10E94A2003C
:1000F000D4E00E94B000D6CF019BFECF0027C4E021
:100100000E94A200D0E00E94B000CCCF029BFECFA4
:100110000027C4E00E94A200D3E00E94B000C2CF3A
:100120000F931F932F930AEF18EC20E100000000BB
:100130002A95E1F71A95C9F70A95B1F72F911F9102
:100140000F9108950F930027F1E0ECE7EC0FF01FFB
:10015000649165B9409A0000000040980F9108959D
:100160000F930027F1E0EEE8ED0FF01F649165B901
:10017000419A0000000041980F910895C0F9A4B081
:10018000999282F880908883C6A1868EFF000E0D1A
:040190000B070F004A
:00000001FF
