:020000020000FC
:020000003FC0FF
:02004800A9C04D
:1000800000E00AB90FEF0BB904B9442708E00EBF2E
:100090000FEF0DBF00E006BD00E004BD05E005BDAB
:1000A000789411E010936E0028D04938F0F344277B
:1000B00011E033D002D004D0F8CF09B11FEF0127EF
:1000C000003538F0063950F0083C68F00F3F80F0FA
:1000D00079F010E822D011E436D008951FE81DD041
:1000E00012E431D0089510EC18D013E42CD0089508
:1000F0001FEC13D014E427D0089513E00ED00DD0D8
:100100000CD012E00AD018E208D011E006D01CE0B2
:1001100004D016E002D0112708950F93012F007F1D
:1001200005B9289829982A9A00002A9822D0012FE8
:100130000295007F05B9289829982A9A00002A98E4
:1001400018D00F9108950F93012F007F05B9289AB9
:1001500029982A9A00002A980CD0012F0295007F36
:1001600005B9289A29982A9A00002A9802D00F9156
:1001700008957F938F939F93AF93A1E09CE078E2E3
:100180008AE08A95F1F77A95D9F79A95C1F7AA95F9
:10019000A9F7AF919F918F917F9108951F931FB7FA
:1001A0001F9310E015BD11E0410F10E016BD15E0E2
:0A01B00015BD1F911FBF1F91189588
:00000001FF
