:020000020000FC
:100000000E943A000E940F002098289A55276627E0
:100010000E9413000E941B000E942800F9CF00E0FC
:1000200004BD06E005BD0F3F29F056B55617D9F3BC
:10003000652F062F089511272227043618F004563D
:100040001395FBCF0A3018F00A502395FBCF089583
:100050000F931F930F911F9140E3040F19D0022FAC
:10006000040F16D0012F040F13D00AE011D00DE0B9
:100070000FD0089507E60093C40002E00093C0008B
:1000800006E00093C20008E10093C1000027089534
:100090001F931091C00015FFFCCF0093C6001F9165
:0200A0000895C1
:00000001FF
