:020000020000FC
:020000004FC0EF
:1000A0000FEF04B90AB90898109A002722273327BE
:1000B00044275527B0E313E03FD013E03DD013E0D1
:1000C0003BD012E039D018E237D011E035D01CE037
:1000D00033D0009B01C0FDCF64D0009901C0FCCF9C
:1000E0002F3F31F0239506D007D01AD05AD0F1CF48
:1000F0000000FECF2BB90895332744275527622FE0
:10010000643618F064563395FBCF6A3018F06A50A5
:100110004395FBCF613018F061505395FBCF0895A4
:1001200010E80AD03B0F132F1BD04B0F142F18D001
:100130005B0F152F15D00895012F007F05B9289862
:1001400029982A9A00002A981FD0012F0295007F33
:1001500005B9289829982A9A00002A9815D0089558
:10016000012F007F05B9289A29982A9A00002A9819
:100170000BD0012F0295007F05B9289A29982A9A59
:1001800000002A9801D00895A1E09CE078E28AE07E
:100190008A95F1F77A95D9F79A95C1F7AA95A9F7B3
:1001A0000895A1E072EF88E29AE09A95F1F78A95B6
:0C01B000D9F77A95C1F7AA95A9F7089530
:00000001FF
