:020000020000FC
:020000004FC0EF
:1000A00008E00EBF0FEF0DBF089810980FEF04B9CE
:1000B0000E94EE000E94D5000E9469000E94DD00AF
:1000C0000E94C3000E94B2000E9479000E941701A2
:1000D000F5CF13E01BD01AD019D012E017D018E2D8
:1000E00015D011E013D01CE011D016E00FD011276D
:1000F00008951F9310E80AD0102F0F9300E3100FFC
:100100000F911AD016E518D01F9108950F93012F63
:10011000007F05B9289829982A9A00002A988ED03D
:10012000012F0295007F05B9289829982A9A000086
:100130002A9884D00F9108950F93012F007F05B95D
:10014000289A29982A9A00002A9878D0012F029597
:10015000007F05B9289A29982A9A00002A986ED01B
:100160000F910895202F312F000F111F000F111F25
:10017000020F131F42E0140F222733270070012FB4
:100180000695069508950F930F931F9305E50E941A
:10019000FC00012F0E94FC001F910F910E94FC00A7
:1001A0000FEF0E94FC000F91089500E400937C0083
:1001B00007E800937A00000008952F9320917A00B9
:1001C000206420937A0020917A0020742034D9F39F
:1001D00000917800109179002F91089507E600931F
:1001E000C40002E00093C00006E00093C20008E1F2
:1001F0000093C100002708951F931091C00015FFC0
:10020000FCCF0093C6001F9108951F9310E014BD0A
:1002100010E015BD10E016BD10E014BD15E015BDD1
:10022000A89BFECFA89A10E015BD1F9108952F93AB
:100230002FE1EBDF2A95E9F72F9108957F938F93B4
:100240009F93AF93A1E09CE078E28AE08A95F1F772
:100250007A95D9F79A95C1F7AA95A9F7AF919F9189
:060260008F917F910895CB
:00000001FF
