:020000020000FC
:020000003FC0FF
:02003C0089C079
:100080000FEF01B9249A259A442755276627772729
:1000900008E00EBF0FEF0DBF05E8009385000EEEE0
:1000A0000093840000E00093800004E0009381004E
:1000B00001E000936F00789415D0C42F2DD0D0E0CC
:1000C00039D054D0C52F28D0D1E034D04FD0C62F4E
:1000D00023D0D2E02FD04AD0C72F1ED0D3E02AD0D1
:1000E00045D0EACF4A3009F002C0539544275A3030
:1000F00009F003C06395552744276A3009F004C00E
:1001000073956627552744277A3029F401F079E062
:1001100069E059E049E008950F930027F1E0E6E92E
:10012000EC0FF01F849182B92C9A000000002C98EB
:100130000F9108950F930027F1E0E6EAED0FF01F0D
:10014000849182B92D9A000000002D980F91089596
:100150000F930FB70F9305E8009385000EEE009301
:10016000840043950F910FBF0F9118957F938F9344
:100170009F93AF93A1E09CE078E28AE08A95F1F743
:100180007A95D9F79A95C1F7AA95A9F7AF919F915A
:100190008F917F910895C0F9A4B0999282F88090D0
:0A01A0008883C6A1868E0E0D0B07A2
:00000001FF
