:020000020000FC
:020000004FC0EF
:1000A00055276627772788270FEF04B90AB90898DC
:1000B000109A11D07CD040E30099FECF009BFECF78
:1000C00053955F3F21F005D033D01DD0F5CF000010
:1000D000FECF5BB908956BD013E03DD068D03BD024
:1000E00066D039D064D012E036D061D018E233D077
:1000F0005ED011E030D05BD01CE02DD058D016E09F
:100100002AD055D0089510E826D011E024D05436D6
:1001100020F0962F940F192F34D05A3020F0972FBB
:10012000940F192F2ED0982F940F192F2AD008959D
:1001300077278827952F983C18F0985C62E004C0D8
:10014000943610F0945661E09A3018F09A507395F6
:10015000FBCF892F0895012F007F05B92898299892
:100160002A9A000000002A9822D0012F0295007FD1
:1001700005B9289829982A9A000000002A9817D0D3
:100180000895012F007F05B9289A29982A9A00001E
:1001900000002A980CD0012F0295007F05B9289AFB
:1001A00029982A9A000000002A9801D0089524E195
:0E01B00038EC00003A95E9F72A95D1F708954A
:00000001FF
