:020000020000FC
:020000003FC0FF
:020048006BC08B
:1000800000E004B902B90FEF05B901B9549A559AC5
:100090005C985D9808E00EBF0FEF0DBF00E006BD55
:1000A00000E004BD05E005BD789411E010936E00FA
:1000B00044274B36F0F3442700E005BD03B11FEFA2
:1000C0000127003530F0063948F00F3F60F059F055
:1000D000F0CFC0E00DD0D4E017D0E0CFC7E008D01B
:1000E000D0E012D0DBCFC7E003D0D3E00DD0D6CF25
:1000F0000027F1E0E0E3EC0FF01F649162B95C9A35
:10010000000000005C9808950027F1E0E0E4ED0FA6
:10011000F01F649162B95D9A000000005D98089537
:1001200010E015BD439510E016BD15E015BD1895FE
:10013000C0F9A4B0999282F880908883C6A1868E77
:060140000E0D0B0700008C
:00000001FF
