:020000020000FC
:100000000FEF01B9249A259A0E9411000E941C004A
:100010000E9427000E9434000E941C000E942700BA
:10002000F3CF0027D1E0F0E0EEE7ED0FF01F649191
:1000300062B92C9A2C9808950027D0E0F0E0E0E90E
:10004000ED0FF01F649162B92D9A2D98089547E045
:1000500018ED28E23AE03A95F1F72A95D9F71A9582
:10006000C1F74A95A9F708950027D0E1F0E0EEE73F
:10007000ED0FF01F649162B92C9A2C980895C0F985
:10008000A4B0999282F880908808C6A1868EFF005D
:040090000E0D0B073F
:00000001FF
