:020000020000FC
:020000003FC0FF
:100080000FEF04B9002708E00EBF0FEF0DBF64D0DB
:1000900063D062D061D060D05FD05ED05DD05CD0E4
:1000A0005BD05AD059D058D057D013E02BD054D071
:1000B00053D052D027D050D025D04ED012E022D0ED
:1000C0004BD018E21FD048D011E01CD045D01CE026
:1000D00019D042D016E016D03FD010E813D03CD053
:1000E000F1E0E2E81591103011F021D0FBCF0000D3
:1000F00010EC08D0F1E0E2E91591103011F017D0C2
:10010000FBCFEBCF012F007F05B9289829982A9AB9
:10011000000000002A9820D0012F0295007F05B929
:10012000289829982A9A000000002A980895012FFB
:10013000007F05B9289A29982A9A000000002A9879
:100140000BD0012F0295007F05B9289A29982A9A89
:10015000000000002A9808954F936F932F933F93C8
:1001600041E06CE028E23AE03A95F1F72A95D9F7B8
:100170006A95C1F74A95A9F73F912F916F914F91D9
:1001800008955068616D205468616E682056696EEC
:0A019000680047726F75702035009B
:00000001FF
