:020000020000FC
:020000003FC0FF
:02003C00A2C060
:100080000FEF04B942D0442755276627772705E8A4
:10009000009385000EEE0093840000E00093800042
:1000A00004E00093810001E000936F0078944A30EF
:1000B00009F002C053954427563009F002C06395F9
:1000C00055276A3009F002C073956627763001F033
:1000D000000010E82AD063D0F1E0E8EC1591103070
:1000E00011F039D0FBCF000010EC1FD0172F105D9E
:1000F00032D0162F105D2FD01AE32DD0152F105DA2
:100100002AD0142F105D27D0D2CF13E00ED00DD0FF
:100110000CD012E00AD018E208D011E006D01CE0A2
:1001200004D016E002D0112708950F93012F007F0D
:1001300005B9289829982A9A00002A9830D0012FCA
:100140000295007F05B9289829982A9A00002A98D4
:1001500026D00F9108950F93012F007F05B9289A9B
:1001600029982A9A00002A981AD0012F0295007F18
:1001700005B9289A29982A9A00002A9810D00F9138
:1001800008950F930FB70F9305E8009385000EEEC7
:100190000093840043950F910FBF0F9118957F93A3
:1001A0008F939F93AF93A1E09CE078E28AE08A95D9
:1001B000F1F77A95D9F79A95C1F7AA95A9F7AF9172
:1001C0009F918F917F9108953233353130343500CE
:00000001FF
