:020000020000FC
:0200000027C017
:100050000FEF04B904D048D03FD050D0FFCF3CD0F0
:1000600013E012D039D010D037D00ED035D012E0F6
:100070000BD032D018E208D011E006D01CE004D03A
:1000800016E002D000000895012F007F05B92898DE
:1000900029982A9A00002A981FD0012F0295007FE4
:1000A00005B9289829982A9A00002A9815D0089509
:1000B000012F007F05B9289A29982A9A00002A98CA
:1000C0000BD0012F0295007F05B9289A29982A9A0A
:1000D00000002A9801D0089524E138EC00003A95F8
:1000E000E9F72A95D1F7089510E8CEDFF4E0E0E0D3
:1000F0001591103011F0DCDFFBCF089510ECC4DF58
:10010000F4E0ECE01591103011F0D2DFFBCF089550
:100400004D43552D415652204C41420047524F55C5
:06041000503A20303200DA
:00000001FF
