:020000020000FC
:020000003FC0FF
:020048004AC0AC
:0200500051C09D
:10008000089A0998119A0A9A12980B9A139808E0FC
:100090000EBF0FEF0DBF03D010D01AD0FECF07E672
:1000A0000093C40002E00093C00006E00093C20089
:1000B00008E90093C1007894089501EC06BD00E0C2
:1000C00004BD03E005BD789411E010936E0008951F
:1000D0000199FECF129A019BFDCF1298089510E06E
:1000E00015BD00B111E0012702B911EC16BD13E0F6
:1000F00015BD18950F930FB70F930091C6000234EA
:1001000019F0043519F004C0139A02C0139800C006
:080110000F910FBF0F9118952C
:00000001FF
