:020000020000FC
:020000004FC0EF
:1000A00008E00EBF0FEF0DBF089810980E948C005B
:1000B0000E9473000E947B000E9461000E94B500B4
:1000C000F9CF0F930F931F9305E50E949A00012F1C
:1000D0000E949A001F910F910E949A000FEF0E94B8
:1000E0009A000F91089500E400937C0007E80093C4
:1000F0007A00000008952F9320917A0020642093C5
:100100007A0020917A0020742034D9F3009178008D
:10011000109179002F91089507E60093C40002E042
:100120000093C00006E00093C20008E10093C10004
:10013000002708951F931091C00015FFFCCF009376
:10014000C6001F9108951F9310E014BD10E015BD67
:1001500010E016BD10E014BD15E015BDA89BFECF44
:10016000A89A10E015BD1F9108952F932FE1EBDFA2
:080170002A95E9F72F9108958B
:00000001FF
