:020000020000FC
:100000000E94370000E001B90FEF02B90027552721
:100010000E940F000E9418000E942500F9CF00994D
:10002000FECF009BFECF5F3F09F05395052F08954B
:1000300011272227043618F004561395FBCF0A30F7
:1000400018F00A502395FBCF08950F931F930F913B
:100050001F9140E3040F18D0022F040F15D0012F79
:10006000040F12D00AE010D00DE00ED0089507E67C
:100070000093C40002E00093C00006E00093C200B9
:1000800008E10093C10008951F931091C00015FF6F
:0A009000FCCF0093C6001F910895F5
:00000001FF
