:020000020000FC
:0200000027C017
:100050000FEF01B900E30AB900E0009380000DE062
:100060000093810000E00093890007E2009388007C
:1000700000E013E00ED01BD001E012E00AD017D050
:1000800002E011E006D013D003E010E002D00FD060
:10009000EFCF2FEF22B905D00ED006D015D001D06A
:1000A00008955D9A5D9808955C9A5C980895B19B57
:1000B000FECFB19A0895F0E0EAED2227E10FF21F9A
:1000C000249122B900000895F0E0ECEE2227E00F21
:1000D000F21F249122B900000895C0F9A4B09992AA
:1000E00082F880908883C6A1868E00000E0D0B07D3
:00000001FF
